{
  "contractName": "Dice",
  "abi": [
    {
      "anonymous": false,
      "inputs": [
        {
          "indexed": false,
          "internalType": "uint256",
          "name": "diceId",
          "type": "uint256"
        },
        {
          "indexed": false,
          "internalType": "uint8",
          "name": "luckyTimes",
          "type": "uint8"
        }
      ],
      "name": "luckytimesEvent",
      "type": "event"
    },
    {
      "anonymous": false,
      "inputs": [
        {
          "indexed": false,
          "internalType": "uint256",
          "name": "diceId",
          "type": "uint256"
        },
        {
          "indexed": false,
          "internalType": "uint8",
          "name": "newNumber",
          "type": "uint8"
        }
      ],
      "name": "rolled",
      "type": "event"
    },
    {
      "anonymous": false,
      "inputs": [
        {
          "indexed": false,
          "internalType": "uint256",
          "name": "diceId",
          "type": "uint256"
        }
      ],
      "name": "rolling",
      "type": "event"
    },
    {
      "inputs": [
        {
          "internalType": "uint256",
          "name": "",
          "type": "uint256"
        }
      ],
      "name": "dices",
      "outputs": [
        {
          "internalType": "uint8",
          "name": "numberOfSides",
          "type": "uint8"
        },
        {
          "internalType": "uint8",
          "name": "color",
          "type": "uint8"
        },
        {
          "internalType": "uint8",
          "name": "currentNumber",
          "type": "uint8"
        },
        {
          "internalType": "uint8",
          "name": "luckyTimes",
          "type": "uint8"
        },
        {
          "internalType": "enum Dice.diceState",
          "name": "state",
          "type": "uint8"
        },
        {
          "internalType": "uint256",
          "name": "creationValue",
          "type": "uint256"
        },
        {
          "internalType": "address",
          "name": "owner",
          "type": "address"
        },
        {
          "internalType": "address",
          "name": "prevOwner",
          "type": "address"
        }
      ],
      "stateMutability": "view",
      "type": "function",
      "constant": true
    },
    {
      "inputs": [],
      "name": "numDices",
      "outputs": [
        {
          "internalType": "uint256",
          "name": "",
          "type": "uint256"
        }
      ],
      "stateMutability": "view",
      "type": "function",
      "constant": true
    },
    {
      "inputs": [
        {
          "internalType": "uint8",
          "name": "numberOfSides",
          "type": "uint8"
        },
        {
          "internalType": "uint8",
          "name": "color",
          "type": "uint8"
        }
      ],
      "name": "add",
      "outputs": [
        {
          "internalType": "uint256",
          "name": "",
          "type": "uint256"
        }
      ],
      "stateMutability": "payable",
      "type": "function",
      "payable": true
    },
    {
      "inputs": [
        {
          "internalType": "uint256",
          "name": "diceId",
          "type": "uint256"
        }
      ],
      "name": "roll",
      "outputs": [],
      "stateMutability": "nonpayable",
      "type": "function"
    },
    {
      "inputs": [
        {
          "internalType": "uint256",
          "name": "diceId",
          "type": "uint256"
        }
      ],
      "name": "stopRoll",
      "outputs": [],
      "stateMutability": "nonpayable",
      "type": "function"
    },
    {
      "inputs": [
        {
          "internalType": "uint256",
          "name": "diceId",
          "type": "uint256"
        },
        {
          "internalType": "address",
          "name": "newOwner",
          "type": "address"
        }
      ],
      "name": "transfer",
      "outputs": [],
      "stateMutability": "nonpayable",
      "type": "function"
    },
    {
      "inputs": [
        {
          "internalType": "uint256",
          "name": "diceId",
          "type": "uint256"
        }
      ],
      "name": "getDiceSides",
      "outputs": [
        {
          "internalType": "uint8",
          "name": "",
          "type": "uint8"
        }
      ],
      "stateMutability": "view",
      "type": "function",
      "constant": true
    },
    {
      "inputs": [
        {
          "internalType": "uint256",
          "name": "diceId",
          "type": "uint256"
        }
      ],
      "name": "getDiceNumber",
      "outputs": [
        {
          "internalType": "uint8",
          "name": "",
          "type": "uint8"
        }
      ],
      "stateMutability": "view",
      "type": "function",
      "constant": true
    },
    {
      "inputs": [
        {
          "internalType": "uint256",
          "name": "diceId",
          "type": "uint256"
        }
      ],
      "name": "getDiceValue",
      "outputs": [
        {
          "internalType": "uint256",
          "name": "",
          "type": "uint256"
        }
      ],
      "stateMutability": "view",
      "type": "function",
      "constant": true
    },
    {
      "inputs": [
        {
          "internalType": "uint256",
          "name": "diceId",
          "type": "uint256"
        }
      ],
      "name": "getLuckyTimes",
      "outputs": [
        {
          "internalType": "uint256",
          "name": "",
          "type": "uint256"
        }
      ],
      "stateMutability": "view",
      "type": "function",
      "constant": true
    },
    {
      "inputs": [
        {
          "internalType": "uint256",
          "name": "diceId",
          "type": "uint256"
        }
      ],
      "name": "getOwner",
      "outputs": [
        {
          "internalType": "address",
          "name": "",
          "type": "address"
        }
      ],
      "stateMutability": "view",
      "type": "function",
      "constant": true
    },
    {
      "inputs": [
        {
          "internalType": "uint256",
          "name": "diceId",
          "type": "uint256"
        }
      ],
      "name": "getprevOwner",
      "outputs": [
        {
          "internalType": "address",
          "name": "",
          "type": "address"
        }
      ],
      "stateMutability": "view",
      "type": "function",
      "constant": true
    },
    {
      "inputs": [
        {
          "internalType": "uint256",
          "name": "diceId",
          "type": "uint256"
        }
      ],
      "name": "destroyDice",
      "outputs": [],
      "stateMutability": "nonpayable",
      "type": "function"
    }
  ],
  "bytecode": "0x60806040526000805534801561001457600080fd5b50611897806100246000396000f3fe6080604052600436106100c25760003560e01c8063a819604c1161007f578063bb4e3f4d11610059578063bb4e3f4d146102a3578063c41a360a146102d3578063de2271fe14610310578063ee2fa39c1461033b576100c2565b8063a819604c14610200578063a98c5b711461023d578063b7760c8f1461027a576100c2565b80631e76dcdd146100c75780631f7b4f30146100f057806329265db0146101195780637bfd451c146101425780638c8f53a41461017f578063912475ba146101bc575b600080fd5b3480156100d357600080fd5b506100ee60048036038101906100e9919061125b565b610378565b005b3480156100fc57600080fd5b506101176004803603810190610112919061125b565b610640565b005b34801561012557600080fd5b50610140600480360381019061013b919061125b565b6107d4565b005b34801561014e57600080fd5b506101696004803603810190610164919061125b565b610a2c565b60405161017691906112c9565b60405180910390f35b34801561018b57600080fd5b506101a660048036038101906101a1919061125b565b610ab2565b6040516101b391906112f3565b60405180910390f35b3480156101c857600080fd5b506101e360048036038101906101de919061125b565b610b28565b6040516101f79897969594939291906113a1565b60405180910390f35b34801561020c57600080fd5b506102276004803603810190610222919061125b565b610bf1565b60405161023491906112f3565b60405180910390f35b34801561024957600080fd5b50610264600480360381019061025f919061125b565b610c57565b604051610271919061141f565b60405180910390f35b34801561028657600080fd5b506102a1600480360381019061029c9190611466565b610cca565b005b6102bd60048036038101906102b891906114d2565b610e9a565b6040516102ca91906112f3565b60405180910390f35b3480156102df57600080fd5b506102fa60048036038101906102f5919061125b565b611121565b60405161030791906112c9565b60405180910390f35b34801561031c57600080fd5b506103256111a7565b60405161033291906112f3565b60405180910390f35b34801561034757600080fd5b50610362600480360381019061035d919061125b565b6111ad565b60405161036f919061141f565b60405180910390f35b803373ffffffffffffffffffffffffffffffffffffffff166001600083815260200190815260200160002060020160009054906101000a900473ffffffffffffffffffffffffffffffffffffffff1673ffffffffffffffffffffffffffffffffffffffff161461041d576040517f08c379a00000000000000000000000000000000000000000000000000000000081526004016104149061156f565b60405180910390fd5b816000548110610462576040517f08c379a0000000000000000000000000000000000000000000000000000000008152600401610459906115db565b60405180910390fd5b60006001600085815260200190815260200160002060000160046101000a81548160ff0219169083600181111561049c5761049b61132a565b5b02179055506000600180600086815260200190815260200160002060000160009054906101000a900460ff1660ff166001866104d8919061162a565b426104e3919061165e565b6104ed91906116cf565b6104f79190611700565b9050806001600086815260200190815260200160002060000160026101000a81548160ff021916908360ff1602179055506001600085815260200190815260200160002060000160009054906101000a900460ff1660ff168160ff16036106015760016000858152602001908152602001600020600001600381819054906101000a900460ff168092919061058b90611735565b91906101000a81548160ff021916908360ff160217905550507f5eb3ac696cd88d7c0027515183f03acb4b50881518c429b03cab49811e8f6961846001600087815260200190815260200160002060000160039054906101000a900460ff166040516105f892919061175e565b60405180910390a15b7ffca7e5ead94c99a33f4db0e5e7ed5266f833f73d27b83852ab0429662c60f5bf848260405161063292919061175e565b60405180910390a150505050565b803373ffffffffffffffffffffffffffffffffffffffff166001600083815260200190815260200160002060020160009054906101000a900473ffffffffffffffffffffffffffffffffffffffff1673ffffffffffffffffffffffffffffffffffffffff16146106e5576040517f08c379a00000000000000000000000000000000000000000000000000000000081526004016106dc9061156f565b60405180910390fd5b81600054811061072a576040517f08c379a0000000000000000000000000000000000000000000000000000000008152600401610721906115db565b60405180910390fd5b600180600085815260200190815260200160002060000160046101000a81548160ff021916908360018111156107635761076261132a565b5b021790555060006001600085815260200190815260200160002060000160026101000a81548160ff021916908360ff1602179055507f168812357336ee7b54afff4280d17ba364831e5c2d0eb5a3fa2d2634e5e77a86836040516107c791906112f3565b60405180910390a1505050565b803373ffffffffffffffffffffffffffffffffffffffff166001600083815260200190815260200160002060020160009054906101000a900473ffffffffffffffffffffffffffffffffffffffff1673ffffffffffffffffffffffffffffffffffffffff1614610879576040517f08c379a00000000000000000000000000000000000000000000000000000000081526004016108709061156f565b60405180910390fd5b8160005481106108be576040517f08c379a00000000000000000000000000000000000000000000000000000000081526004016108b5906115db565b60405180910390fd5b6000600160008581526020019081526020016000206001015490506001600085815260200190815260200160002060020160009054906101000a900473ffffffffffffffffffffffffffffffffffffffff1673ffffffffffffffffffffffffffffffffffffffff166108fc829081150290604051600060405180830381858888f19350505050158015610955573d6000803e3d6000fd5b5060016000858152602001908152602001600020600080820160006101000a81549060ff02191690556000820160016101000a81549060ff02191690556000820160026101000a81549060ff02191690556000820160036101000a81549060ff02191690556000820160046101000a81549060ff021916905560018201600090556002820160006101000a81549073ffffffffffffffffffffffffffffffffffffffff02191690556003820160006101000a81549073ffffffffffffffffffffffffffffffffffffffff0219169055505050505050565b6000816000548110610a73576040517f08c379a0000000000000000000000000000000000000000000000000000000008152600401610a6a906115db565b60405180910390fd5b6001600084815260200190815260200160002060030160009054906101000a900473ffffffffffffffffffffffffffffffffffffffff16915050919050565b6000816000548110610af9576040517f08c379a0000000000000000000000000000000000000000000000000000000008152600401610af0906115db565b60405180910390fd5b6001600084815260200190815260200160002060000160039054906101000a900460ff1660ff16915050919050565b60016020528060005260406000206000915090508060000160009054906101000a900460ff16908060000160019054906101000a900460ff16908060000160029054906101000a900460ff16908060000160039054906101000a900460ff16908060000160049054906101000a900460ff16908060010154908060020160009054906101000a900473ffffffffffffffffffffffffffffffffffffffff16908060030160009054906101000a900473ffffffffffffffffffffffffffffffffffffffff16905088565b6000816000548110610c38576040517f08c379a0000000000000000000000000000000000000000000000000000000008152600401610c2f906115db565b60405180910390fd5b6001600084815260200190815260200160002060010154915050919050565b6000816000548110610c9e576040517f08c379a0000000000000000000000000000000000000000000000000000000008152600401610c95906115db565b60405180910390fd5b6001600084815260200190815260200160002060000160029054906101000a900460ff16915050919050565b813373ffffffffffffffffffffffffffffffffffffffff166001600083815260200190815260200160002060020160009054906101000a900473ffffffffffffffffffffffffffffffffffffffff1673ffffffffffffffffffffffffffffffffffffffff1614610d6f576040517f08c379a0000000000000000000000000000000000000000000000000000000008152600401610d669061156f565b60405180910390fd5b826000548110610db4576040517f08c379a0000000000000000000000000000000000000000000000000000000008152600401610dab906115db565b60405180910390fd5b6001600085815260200190815260200160002060020160009054906101000a900473ffffffffffffffffffffffffffffffffffffffff166001600086815260200190815260200160002060030160006101000a81548173ffffffffffffffffffffffffffffffffffffffff021916908373ffffffffffffffffffffffffffffffffffffffff160217905550826001600086815260200190815260200160002060020160006101000a81548173ffffffffffffffffffffffffffffffffffffffff021916908373ffffffffffffffffffffffffffffffffffffffff16021790555050505050565b6000808360ff1611610eab57600080fd5b662386f26fc100003411610ef4576040517f08c379a0000000000000000000000000000000000000000000000000000000008152600401610eeb906117f9565b60405180910390fd5b60006040518061010001604052808560ff1681526020018460ff16815260200160018660ff1642610f2591906116cf565b610f2f9190611700565b60ff168152602001600060ff16815260200160006001811115610f5557610f5461132a565b5b81526020013481526020013373ffffffffffffffffffffffffffffffffffffffff168152602001600073ffffffffffffffffffffffffffffffffffffffff1681525090506000806000815480929190610fad90611819565b919050559050816001600083815260200190815260200160002060008201518160000160006101000a81548160ff021916908360ff16021790555060208201518160000160016101000a81548160ff021916908360ff16021790555060408201518160000160026101000a81548160ff021916908360ff16021790555060608201518160000160036101000a81548160ff021916908360ff16021790555060808201518160000160046101000a81548160ff021916908360018111156110765761107561132a565b5b021790555060a0820151816001015560c08201518160020160006101000a81548173ffffffffffffffffffffffffffffffffffffffff021916908373ffffffffffffffffffffffffffffffffffffffff16021790555060e08201518160030160006101000a81548173ffffffffffffffffffffffffffffffffffffffff021916908373ffffffffffffffffffffffffffffffffffffffff160217905550905050809250505092915050565b6000816000548110611168576040517f08c379a000000000000000000000000000000000000000000000000000000000815260040161115f906115db565b60405180910390fd5b6001600084815260200190815260200160002060020160009054906101000a900473ffffffffffffffffffffffffffffffffffffffff16915050919050565b60005481565b60008160005481106111f4576040517f08c379a00000000000000000000000000000000000000000000000000000000081526004016111eb906115db565b60405180910390fd5b6001600084815260200190815260200160002060000160009054906101000a900460ff16915050919050565b600080fd5b6000819050919050565b61123881611225565b811461124357600080fd5b50565b6000813590506112558161122f565b92915050565b60006020828403121561127157611270611220565b5b600061127f84828501611246565b91505092915050565b600073ffffffffffffffffffffffffffffffffffffffff82169050919050565b60006112b382611288565b9050919050565b6112c3816112a8565b82525050565b60006020820190506112de60008301846112ba565b92915050565b6112ed81611225565b82525050565b600060208201905061130860008301846112e4565b92915050565b600060ff82169050919050565b6113248161130e565b82525050565b7f4e487b7100000000000000000000000000000000000000000000000000000000600052602160045260246000fd5b6002811061136a5761136961132a565b5b50565b600081905061137b82611359565b919050565b600061138b8261136d565b9050919050565b61139b81611380565b82525050565b6000610100820190506113b7600083018b61131b565b6113c4602083018a61131b565b6113d1604083018961131b565b6113de606083018861131b565b6113eb6080830187611392565b6113f860a08301866112e4565b61140560c08301856112ba565b61141260e08301846112ba565b9998505050505050505050565b6000602082019050611434600083018461131b565b92915050565b611443816112a8565b811461144e57600080fd5b50565b6000813590506114608161143a565b92915050565b6000806040838503121561147d5761147c611220565b5b600061148b85828601611246565b925050602061149c85828601611451565b9150509250929050565b6114af8161130e565b81146114ba57600080fd5b50565b6000813590506114cc816114a6565b92915050565b600080604083850312156114e9576114e8611220565b5b60006114f7858286016114bd565b9250506020611508858286016114bd565b9150509250929050565b600082825260208201905092915050565b7f4f6e6c792044696365204f776e65722043616e207472616e7366657200000000600082015250565b6000611559601c83611512565b915061156482611523565b602082019050919050565b600060208201905081810360008301526115888161154c565b9050919050565b7f496e76616c696420446963650000000000000000000000000000000000000000600082015250565b60006115c5600c83611512565b91506115d08261158f565b602082019050919050565b600060208201905081810360008301526115f4816115b8565b9050919050565b7f4e487b7100000000000000000000000000000000000000000000000000000000600052601160045260246000fd5b600061163582611225565b915061164083611225565b9250828201905080821115611658576116576115fb565b5b92915050565b600061166982611225565b915061167483611225565b925082820261168281611225565b91508282048414831517611699576116986115fb565b5b5092915050565b7f4e487b7100000000000000000000000000000000000000000000000000000000600052601260045260246000fd5b60006116da82611225565b91506116e583611225565b9250826116f5576116f46116a0565b5b828206905092915050565b600061170b8261130e565b91506117168361130e565b9250828201905060ff81111561172f5761172e6115fb565b5b92915050565b60006117408261130e565b915060ff8203611753576117526115fb565b5b600182019050919050565b600060408201905061177360008301856112e4565b611780602083018461131b565b9392505050565b7f6174206c6561737420302e303120455448206973206e656564656420746f207360008201527f7061776e2061206e657720646963650000000000000000000000000000000000602082015250565b60006117e3602f83611512565b91506117ee82611787565b604082019050919050565b60006020820190508181036000830152611812816117d6565b9050919050565b600061182482611225565b91507fffffffffffffffffffffffffffffffffffffffffffffffffffffffffffffffff8203611856576118556115fb565b5b60018201905091905056fea264697066735822122047dcdfba9526f57ba2445793dde344d084f9df06d6ee9f580a77b339b8f86aaf64736f6c63430008130033",
  "immutableReferences": {},
  "source": "// SPDX-License-Identifier: UNLICENSED\r\npragma solidity ^0.8.0;\r\n\r\ncontract Dice {\r\n    \r\n    enum diceState { stationary, rolling }\r\n    \r\n    struct dice {\r\n        uint8 numberOfSides;\r\n        uint8 color;\r\n        uint8 currentNumber;\r\n        uint8 luckyTimes;\r\n        diceState state;\r\n        uint256 creationValue;\r\n        address owner;\r\n        address prevOwner;\r\n    }\r\n    \r\n    event rolling (uint256 diceId);\r\n    event rolled (uint256 diceId, uint8 newNumber);\r\n    event luckytimesEvent (uint256 diceId, uint8 luckyTimes);\r\n    \r\n    uint256 public numDices = 0;\r\n    mapping(uint256 => dice) public dices;\r\n\r\n    //function to create a new dice, and add to 'dices' map. requires at least 0.01ETH to create\r\n    function add(\r\n        uint8 numberOfSides,\r\n        uint8 color\r\n    ) public payable returns(uint256) {\r\n        require(numberOfSides > 0);\r\n        require(msg.value > 0.01 ether, \"at least 0.01 ETH is needed to spawn a new dice\");\r\n        \r\n        //new dice object\r\n        dice memory newDice = dice(\r\n            numberOfSides,\r\n            color,\r\n            (uint8)(block.timestamp % numberOfSides) + 1,  //non-secure random number\r\n            0,\r\n            diceState.stationary,\r\n            msg.value,\r\n            msg.sender,  //owner\r\n            address(0)\r\n        );\r\n        \r\n        uint256 newDiceId = numDices++;\r\n        dices[newDiceId] = newDice; //commit to state variable\r\n        return newDiceId;   //return new diceId\r\n    }\r\n\r\n    //modifier to ensure a function is callable only by its owner    \r\n    modifier ownerOnly(uint256 diceId) {\r\n        require(dices[diceId].owner == msg.sender,\"Only Dice Owner Can transfer\");\r\n        _;\r\n    }\r\n    \r\n    modifier validDiceId(uint256 diceId) {\r\n        require(diceId < numDices,\"Invalid Dice\");\r\n        _;\r\n    }\r\n\r\n    \r\n\r\n    //owner can roll a dice    \r\n    function roll(uint256 diceId) public ownerOnly(diceId) validDiceId(diceId) {\r\n            dices[diceId].state = diceState.rolling;    //set state to rolling\r\n            dices[diceId].currentNumber = 0;    //number will become 0 while rolling\r\n            emit rolling(diceId);   //emit rolling event\r\n    }\r\n\r\n    function stopRoll(uint256 diceId) public ownerOnly(diceId) validDiceId(diceId) {\r\n            dices[diceId].state = diceState.stationary; //set state to stationary\r\n            \r\n            //this is not a secure randomization\r\n            uint8 newNumber = (uint8)((block.timestamp*(diceId+1)) % dices[diceId].numberOfSides) + 1;\r\n            \r\n            dices[diceId].currentNumber = newNumber;\r\n            \r\n            if (newNumber == dices[diceId].numberOfSides) {\r\n                dices[diceId].luckyTimes ++;\r\n                emit luckytimesEvent(diceId, dices[diceId].luckyTimes);\r\n            }\r\n            emit rolled(diceId, newNumber); //emit rolled\r\n    }\r\n    \r\n    //transfer ownership to new owner\r\n    function transfer(uint256 diceId, address newOwner) public ownerOnly(diceId) validDiceId(diceId) {\r\n        dices[diceId].prevOwner = dices[diceId].owner;\r\n        dices[diceId].owner = newOwner;\r\n    }\r\n\r\n    //get number of sides of dice    \r\n    function getDiceSides(uint256 diceId) public view validDiceId(diceId) returns (uint8) {\r\n        return dices[diceId].numberOfSides;\r\n    }\r\n\r\n    //get current dice number\r\n    function getDiceNumber(uint256 diceId) public view validDiceId(diceId) returns (uint8) {\r\n        return dices[diceId].currentNumber;\r\n    }\r\n\r\n    //get ether put in during creation\r\n    function getDiceValue(uint256 diceId) public view validDiceId(diceId) returns (uint256) {\r\n        return dices[diceId].creationValue;\r\n    }\r\n    \r\n    //get luckyTimes\r\n    function getLuckyTimes(uint256 diceId) public view validDiceId(diceId) returns (uint256) {\r\n        return dices[diceId].luckyTimes;\r\n    }\r\n\r\n    //get luckyTimes\r\n    function getOwner(uint256 diceId) public view validDiceId(diceId) returns (address) {\r\n        return dices[diceId].owner;\r\n    }\r\n\r\n    //get luckyTimes\r\n    function getprevOwner(uint256 diceId) public view validDiceId(diceId) returns (address) {\r\n        return dices[diceId].prevOwner;\r\n    }\r\n    \r\n    function destroyDice(uint256 diceId) public ownerOnly(diceId) validDiceId(diceId) {\r\n        // Convert to payable address\r\n        uint256 remaining_value = dices[diceId].creationValue; \r\n        payable(dices[diceId].owner).transfer(remaining_value); // Refund the balance to the owner\r\n        delete dices[diceId]; // Remove the dice from the mapping\r\n    }\r\n}\r\n\r\n\r\n",
  "sourcePath": "C:\\Users\\alexr\\FT5004 Group Project\\contracts\\dice.sol",
  "compiler": {
    "name": "solc",
    "version": "0.8.19+commit.7dd6d404.Emscripten.clang"
  },
  "schemaVersion": "3.4.13",
  "updatedAt": "2023-04-10T02:44:20.846Z",
  "networkType": "ethereum",
  "devdoc": {
    "kind": "dev",
    "methods": {},
    "version": 1
  },
  "userdoc": {
    "kind": "user",
    "methods": {},
    "version": 1
  }
}