{
  "contractName": "DiceToken",
  "abi": [
    {
      "inputs": [],
      "stateMutability": "nonpayable",
      "type": "constructor"
    },
    {
      "anonymous": false,
      "inputs": [
        {
          "indexed": true,
          "internalType": "address",
          "name": "owner",
          "type": "address"
        },
        {
          "indexed": true,
          "internalType": "address",
          "name": "spender",
          "type": "address"
        },
        {
          "indexed": false,
          "internalType": "uint256",
          "name": "value",
          "type": "uint256"
        }
      ],
      "name": "Approval",
      "type": "event"
    },
    {
      "anonymous": false,
      "inputs": [
        {
          "indexed": true,
          "internalType": "address",
          "name": "from",
          "type": "address"
        },
        {
          "indexed": true,
          "internalType": "address",
          "name": "to",
          "type": "address"
        },
        {
          "indexed": false,
          "internalType": "uint256",
          "name": "value",
          "type": "uint256"
        }
      ],
      "name": "Transfer",
      "type": "event"
    },
    {
      "inputs": [],
      "name": "decimals",
      "outputs": [
        {
          "internalType": "uint8",
          "name": "",
          "type": "uint8"
        }
      ],
      "stateMutability": "view",
      "type": "function"
    },
    {
      "inputs": [],
      "name": "name",
      "outputs": [
        {
          "internalType": "string",
          "name": "",
          "type": "string"
        }
      ],
      "stateMutability": "view",
      "type": "function"
    },
    {
      "inputs": [],
      "name": "symbol",
      "outputs": [
        {
          "internalType": "string",
          "name": "",
          "type": "string"
        }
      ],
      "stateMutability": "view",
      "type": "function"
    },
    {
      "inputs": [],
      "name": "totalSupply",
      "outputs": [
        {
          "internalType": "uint256",
          "name": "",
          "type": "uint256"
        }
      ],
      "stateMutability": "view",
      "type": "function"
    },
    {
      "inputs": [
        {
          "internalType": "address",
          "name": "account",
          "type": "address"
        }
      ],
      "name": "balanceOf",
      "outputs": [
        {
          "internalType": "uint256",
          "name": "",
          "type": "uint256"
        }
      ],
      "stateMutability": "view",
      "type": "function"
    },
    {
      "inputs": [
        {
          "internalType": "address",
          "name": "recipient",
          "type": "address"
        },
        {
          "internalType": "uint256",
          "name": "amount",
          "type": "uint256"
        }
      ],
      "name": "transfer",
      "outputs": [
        {
          "internalType": "bool",
          "name": "",
          "type": "bool"
        }
      ],
      "stateMutability": "nonpayable",
      "type": "function"
    },
    {
      "inputs": [
        {
          "internalType": "address",
          "name": "owner",
          "type": "address"
        },
        {
          "internalType": "address",
          "name": "spender",
          "type": "address"
        }
      ],
      "name": "allowance",
      "outputs": [
        {
          "internalType": "uint256",
          "name": "",
          "type": "uint256"
        }
      ],
      "stateMutability": "view",
      "type": "function"
    },
    {
      "inputs": [
        {
          "internalType": "address",
          "name": "spender",
          "type": "address"
        },
        {
          "internalType": "uint256",
          "name": "amount",
          "type": "uint256"
        }
      ],
      "name": "approve",
      "outputs": [
        {
          "internalType": "bool",
          "name": "",
          "type": "bool"
        }
      ],
      "stateMutability": "nonpayable",
      "type": "function"
    },
    {
      "inputs": [
        {
          "internalType": "address",
          "name": "sender",
          "type": "address"
        },
        {
          "internalType": "address",
          "name": "recipient",
          "type": "address"
        },
        {
          "internalType": "uint256",
          "name": "amount",
          "type": "uint256"
        }
      ],
      "name": "transferFrom",
      "outputs": [
        {
          "internalType": "bool",
          "name": "",
          "type": "bool"
        }
      ],
      "stateMutability": "nonpayable",
      "type": "function"
    },
    {
      "inputs": [
        {
          "internalType": "uint256",
          "name": "amount",
          "type": "uint256"
        }
      ],
      "name": "topUpDT",
      "outputs": [],
      "stateMutability": "payable",
      "type": "function"
    }
  ],
  "bytecode": "0x608060405234801561001057600080fd5b506127106000803073ffffffffffffffffffffffffffffffffffffffff1673ffffffffffffffffffffffffffffffffffffffff168152602001908152602001600020819055506110e8806100656000396000f3fe6080604052600436106100915760003560e01c806370a082311161005957806370a082311461019157806395d89b41146101ce578063a9059cbb146101f9578063acb22eb814610236578063dd62ed3e1461025257610091565b806306fdde0314610096578063095ea7b3146100c157806318160ddd146100fe57806323b872dd14610129578063313ce56714610166575b600080fd5b3480156100a257600080fd5b506100ab61028f565b6040516100b89190610baa565b60405180910390f35b3480156100cd57600080fd5b506100e860048036038101906100e39190610c65565b6102c8565b6040516100f59190610cc0565b60405180910390f35b34801561010a57600080fd5b506101136103ba565b6040516101209190610cea565b60405180910390f35b34801561013557600080fd5b50610150600480360381019061014b9190610d05565b610400565b60405161015d9190610cc0565b60405180910390f35b34801561017257600080fd5b5061017b6106ef565b6040516101889190610d74565b60405180910390f35b34801561019d57600080fd5b506101b860048036038101906101b39190610d8f565b6106f4565b6040516101c59190610cea565b60405180910390f35b3480156101da57600080fd5b506101e361073c565b6040516101f09190610baa565b60405180910390f35b34801561020557600080fd5b50610220600480360381019061021b9190610c65565b610775565b60405161022d9190610cc0565b60405180910390f35b610250600480360381019061024b9190610dbc565b610911565b005b34801561025e57600080fd5b5061027960048036038101906102749190610de9565b610a93565b6040516102869190610cea565b60405180910390f35b6040518060400160405280600981526020017f44696365546f6b656e000000000000000000000000000000000000000000000081525081565b600081600160003373ffffffffffffffffffffffffffffffffffffffff1673ffffffffffffffffffffffffffffffffffffffff16815260200190815260200160002060008573ffffffffffffffffffffffffffffffffffffffff1673ffffffffffffffffffffffffffffffffffffffff168152602001908152602001600020819055508273ffffffffffffffffffffffffffffffffffffffff163373ffffffffffffffffffffffffffffffffffffffff167f8c5be1e5ebec7d5bd14f71427d1e84f3dd0314c0f7b2291e5b200ac8c7c3b925846040516103a89190610cea565b60405180910390a36001905092915050565b60008060003073ffffffffffffffffffffffffffffffffffffffff1673ffffffffffffffffffffffffffffffffffffffff16815260200190815260200160002054905090565b60008060008573ffffffffffffffffffffffffffffffffffffffff1673ffffffffffffffffffffffffffffffffffffffff16815260200190815260200160002054821115610483576040517f08c379a000000000000000000000000000000000000000000000000000000000815260040161047a90610e75565b60405180910390fd5b600160008573ffffffffffffffffffffffffffffffffffffffff1673ffffffffffffffffffffffffffffffffffffffff16815260200190815260200160002060003373ffffffffffffffffffffffffffffffffffffffff1673ffffffffffffffffffffffffffffffffffffffff16815260200190815260200160002054821115610542576040517f08c379a000000000000000000000000000000000000000000000000000000000815260040161053990610ee1565b60405180910390fd5b816000808673ffffffffffffffffffffffffffffffffffffffff1673ffffffffffffffffffffffffffffffffffffffff16815260200190815260200160002060008282546105909190610f30565b92505081905550816000808573ffffffffffffffffffffffffffffffffffffffff1673ffffffffffffffffffffffffffffffffffffffff16815260200190815260200160002060008282546105e59190610f64565b9250508190555081600160008673ffffffffffffffffffffffffffffffffffffffff1673ffffffffffffffffffffffffffffffffffffffff16815260200190815260200160002060003373ffffffffffffffffffffffffffffffffffffffff1673ffffffffffffffffffffffffffffffffffffffff16815260200190815260200160002060008282546106789190610f30565b925050819055508273ffffffffffffffffffffffffffffffffffffffff168473ffffffffffffffffffffffffffffffffffffffff167fddf252ad1be2c89b69c2b068fc378daa952ba7f163c4a11628f55a4df523b3ef846040516106dc9190610cea565b60405180910390a3600190509392505050565b601281565b60008060008373ffffffffffffffffffffffffffffffffffffffff1673ffffffffffffffffffffffffffffffffffffffff168152602001908152602001600020549050919050565b6040518060400160405280600281526020017f445400000000000000000000000000000000000000000000000000000000000081525081565b60008060003373ffffffffffffffffffffffffffffffffffffffff1673ffffffffffffffffffffffffffffffffffffffff168152602001908152602001600020548211156107f8576040517f08c379a00000000000000000000000000000000000000000000000000000000081526004016107ef90610e75565b60405180910390fd5b816000803373ffffffffffffffffffffffffffffffffffffffff1673ffffffffffffffffffffffffffffffffffffffff16815260200190815260200160002060008282546108469190610f30565b92505081905550816000808573ffffffffffffffffffffffffffffffffffffffff1673ffffffffffffffffffffffffffffffffffffffff168152602001908152602001600020600082825461089b9190610f64565b925050819055508273ffffffffffffffffffffffffffffffffffffffff163373ffffffffffffffffffffffffffffffffffffffff167fddf252ad1be2c89b69c2b068fc378daa952ba7f163c4a11628f55a4df523b3ef846040516108ff9190610cea565b60405180910390a36001905092915050565b662386f26fc10000816109249190610f98565b3414610965576040517f08c379a000000000000000000000000000000000000000000000000000000000815260040161095c90611026565b60405180910390fd5b6000803073ffffffffffffffffffffffffffffffffffffffff1673ffffffffffffffffffffffffffffffffffffffff168152602001908152602001600020548111156109e6576040517f08c379a00000000000000000000000000000000000000000000000000000000081526004016109dd90611092565b60405180910390fd5b806000803073ffffffffffffffffffffffffffffffffffffffff1673ffffffffffffffffffffffffffffffffffffffff1681526020019081526020016000206000828254610a349190610f30565b92505081905550806000803373ffffffffffffffffffffffffffffffffffffffff1673ffffffffffffffffffffffffffffffffffffffff1681526020019081526020016000206000828254610a899190610f64565b9250508190555050565b6000600160008473ffffffffffffffffffffffffffffffffffffffff1673ffffffffffffffffffffffffffffffffffffffff16815260200190815260200160002060008373ffffffffffffffffffffffffffffffffffffffff1673ffffffffffffffffffffffffffffffffffffffff16815260200190815260200160002054905092915050565b600081519050919050565b600082825260208201905092915050565b60005b83811015610b54578082015181840152602081019050610b39565b60008484015250505050565b6000601f19601f8301169050919050565b6000610b7c82610b1a565b610b868185610b25565b9350610b96818560208601610b36565b610b9f81610b60565b840191505092915050565b60006020820190508181036000830152610bc48184610b71565b905092915050565b600080fd5b600073ffffffffffffffffffffffffffffffffffffffff82169050919050565b6000610bfc82610bd1565b9050919050565b610c0c81610bf1565b8114610c1757600080fd5b50565b600081359050610c2981610c03565b92915050565b6000819050919050565b610c4281610c2f565b8114610c4d57600080fd5b50565b600081359050610c5f81610c39565b92915050565b60008060408385031215610c7c57610c7b610bcc565b5b6000610c8a85828601610c1a565b9250506020610c9b85828601610c50565b9150509250929050565b60008115159050919050565b610cba81610ca5565b82525050565b6000602082019050610cd56000830184610cb1565b92915050565b610ce481610c2f565b82525050565b6000602082019050610cff6000830184610cdb565b92915050565b600080600060608486031215610d1e57610d1d610bcc565b5b6000610d2c86828701610c1a565b9350506020610d3d86828701610c1a565b9250506040610d4e86828701610c50565b9150509250925092565b600060ff82169050919050565b610d6e81610d58565b82525050565b6000602082019050610d896000830184610d65565b92915050565b600060208284031215610da557610da4610bcc565b5b6000610db384828501610c1a565b91505092915050565b600060208284031215610dd257610dd1610bcc565b5b6000610de084828501610c50565b91505092915050565b60008060408385031215610e0057610dff610bcc565b5b6000610e0e85828601610c1a565b9250506020610e1f85828601610c1a565b9150509250929050565b7f496e73756666696369656e742062616c616e6365000000000000000000000000600082015250565b6000610e5f601483610b25565b9150610e6a82610e29565b602082019050919050565b60006020820190508181036000830152610e8e81610e52565b9050919050565b7f496e73756666696369656e7420616c6c6f77616e636500000000000000000000600082015250565b6000610ecb601683610b25565b9150610ed682610e95565b602082019050919050565b60006020820190508181036000830152610efa81610ebe565b9050919050565b7f4e487b7100000000000000000000000000000000000000000000000000000000600052601160045260246000fd5b6000610f3b82610c2f565b9150610f4683610c2f565b9250828203905081811115610f5e57610f5d610f01565b5b92915050565b6000610f6f82610c2f565b9150610f7a83610c2f565b9250828201905080821115610f9257610f91610f01565b5b92915050565b6000610fa382610c2f565b9150610fae83610c2f565b9250828202610fbc81610c2f565b91508282048414831517610fd357610fd2610f01565b5b5092915050565b7f496e636f7272656374207061796d656e7420616d6f756e740000000000000000600082015250565b6000611010601883610b25565b915061101b82610fda565b602082019050919050565b6000602082019050818103600083015261103f81611003565b9050919050565b7f445420737570706c79206973206e6f7420656e6f756768000000000000000000600082015250565b600061107c601783610b25565b915061108782611046565b602082019050919050565b600060208201905081810360008301526110ab8161106f565b905091905056fea26469706673582212208eff62ab443994a35e699754e9494b92ec2e0fca1af35259986daf8da794fdca64736f6c63430008130033",
  "immutableReferences": {},
  "source": "pragma solidity ^0.8.0;\r\n\r\ninterface IERC20 {\r\n\r\n    event Transfer(address indexed from, address indexed to, uint256 value);\r\n    event Approval(address indexed owner, address indexed spender, uint256 value);\r\n\r\n    function totalSupply() external view returns (uint256);\r\n    function balanceOf(address account) external view returns (uint256);\r\n    function allowance(address owner, address spender) external view returns (uint256);\r\n    function transfer(address recipient, uint256 amount) external returns (bool);\r\n    function approve(address spender, uint amount) external returns (bool);\r\n    function transferFrom(address sender, address recipient, uint256 amount) external returns (bool);\r\n\r\n}\r\n\r\ncontract DiceToken is IERC20 {\r\n    string public constant name = \"DiceToken\";\r\n    string public constant symbol = \"DT\";\r\n    uint8 public constant decimals = 18;\r\n    mapping (address => uint256) private accounts;\r\n    mapping (address => mapping (address => uint256)) private _allowances;\r\n\r\n    constructor() {\r\n        accounts[address(this)] = 10000;\r\n    }\r\n\r\n    function totalSupply() public view override returns (uint256) {\r\n        return accounts[address(this)];\r\n    }\r\n\r\n    function balanceOf(address account) public view override returns (uint256) {\r\n        return accounts[account];\r\n    }\r\n\r\n    function transfer(address recipient, uint256 amount) public override returns (bool) {\r\n        require(amount <= accounts[msg.sender], \"Insufficient balance\");\r\n        accounts[msg.sender] -= amount;\r\n        accounts[recipient] += amount;\r\n        emit Transfer(msg.sender, recipient, amount);\r\n        return true;\r\n    }\r\n\r\n    function allowance(address owner, address spender) public view override returns (uint256) {\r\n        return _allowances[owner][spender];\r\n    }\r\n\r\n    function approve(address spender, uint256 amount) public override returns (bool) {\r\n        _allowances[msg.sender][spender] = amount;\r\n        emit Approval(msg.sender, spender, amount);\r\n        return true;\r\n    }\r\n\r\n    function transferFrom(address sender, address recipient, uint256 amount) public override returns (bool) {\r\n        require(amount <= accounts[sender], \"Insufficient balance\");\r\n        require(amount <= _allowances[sender][msg.sender], \"Insufficient allowance\");\r\n        accounts[sender] -= amount;\r\n        accounts[recipient] += amount;\r\n        _allowances[sender][msg.sender] -= amount;\r\n        emit Transfer(sender, recipient, amount);\r\n        return true;\r\n    }\r\n\r\n    function topUpDT(uint256 amount) public payable {\r\n        require(msg.value == amount * 0.01 ether, \"Incorrect payment amount\");\r\n        require(amount <= accounts[address(this)], \"DT supply is not enough\");\r\n        accounts[address(this)] -= amount;\r\n        accounts[msg.sender] += amount;\r\n    }\r\n\r\n}",
  "sourcePath": "C:\\Users\\alexr\\FT5004 Group Project\\contracts\\dicetoken.sol",
  "compiler": {
    "name": "solc",
    "version": "0.8.19+commit.7dd6d404.Emscripten.clang"
  },
  "schemaVersion": "3.4.13",
  "updatedAt": "2023-04-06T15:31:15.908Z",
  "devdoc": {
    "kind": "dev",
    "methods": {},
    "version": 1
  },
  "userdoc": {
    "kind": "user",
    "methods": {},
    "version": 1
  }
}