{
  "contractName": "DiceMarket",
  "abi": [
    {
      "inputs": [
        {
          "internalType": "contract Dice",
          "name": "_diceContract",
          "type": "address"
        },
        {
          "internalType": "uint256",
          "name": "_commissionFee",
          "type": "uint256"
        }
      ],
      "stateMutability": "nonpayable",
      "type": "constructor"
    },
    {
      "anonymous": false,
      "inputs": [
        {
          "indexed": true,
          "internalType": "uint256",
          "name": "diceId",
          "type": "uint256"
        },
        {
          "indexed": false,
          "internalType": "uint256",
          "name": "price",
          "type": "uint256"
        }
      ],
      "name": "DiceListed",
      "type": "event"
    },
    {
      "anonymous": false,
      "inputs": [
        {
          "indexed": true,
          "internalType": "uint256",
          "name": "diceId",
          "type": "uint256"
        },
        {
          "indexed": false,
          "internalType": "uint256",
          "name": "price",
          "type": "uint256"
        }
      ],
      "name": "DiceSold",
      "type": "event"
    },
    {
      "anonymous": false,
      "inputs": [
        {
          "indexed": true,
          "internalType": "uint256",
          "name": "diceId",
          "type": "uint256"
        }
      ],
      "name": "DiceUnlisted",
      "type": "event"
    },
    {
      "inputs": [],
      "name": "commissionFee",
      "outputs": [
        {
          "internalType": "uint256",
          "name": "",
          "type": "uint256"
        }
      ],
      "stateMutability": "view",
      "type": "function",
      "constant": true
    },
    {
      "inputs": [],
      "name": "diceContract",
      "outputs": [
        {
          "internalType": "contract Dice",
          "name": "",
          "type": "address"
        }
      ],
      "stateMutability": "view",
      "type": "function",
      "constant": true
    },
    {
      "inputs": [
        {
          "internalType": "uint256",
          "name": "",
          "type": "uint256"
        }
      ],
      "name": "idtoprice",
      "outputs": [
        {
          "internalType": "uint256",
          "name": "",
          "type": "uint256"
        }
      ],
      "stateMutability": "view",
      "type": "function",
      "constant": true
    },
    {
      "inputs": [],
      "name": "thisaddress",
      "outputs": [
        {
          "internalType": "address",
          "name": "",
          "type": "address"
        }
      ],
      "stateMutability": "view",
      "type": "function",
      "constant": true
    },
    {
      "inputs": [
        {
          "internalType": "uint256",
          "name": "_diceId",
          "type": "uint256"
        },
        {
          "internalType": "uint256",
          "name": "_price",
          "type": "uint256"
        }
      ],
      "name": "list",
      "outputs": [],
      "stateMutability": "nonpayable",
      "type": "function"
    },
    {
      "inputs": [
        {
          "internalType": "uint256",
          "name": "_diceId",
          "type": "uint256"
        }
      ],
      "name": "unlist",
      "outputs": [],
      "stateMutability": "nonpayable",
      "type": "function"
    },
    {
      "inputs": [
        {
          "internalType": "uint256",
          "name": "_diceId",
          "type": "uint256"
        }
      ],
      "name": "checkPrice",
      "outputs": [
        {
          "internalType": "uint256",
          "name": "",
          "type": "uint256"
        }
      ],
      "stateMutability": "view",
      "type": "function",
      "constant": true
    },
    {
      "inputs": [
        {
          "internalType": "uint256",
          "name": "_diceId",
          "type": "uint256"
        }
      ],
      "name": "buy",
      "outputs": [],
      "stateMutability": "payable",
      "type": "function",
      "payable": true
    }
  ],
  "bytecode": "0x60806040523480156200001157600080fd5b50604051620012f7380380620012f7833981810160405281019062000037919062000181565b81600160006101000a81548173ffffffffffffffffffffffffffffffffffffffff021916908373ffffffffffffffffffffffffffffffffffffffff1602179055508060028190555030600360006101000a81548173ffffffffffffffffffffffffffffffffffffffff021916908373ffffffffffffffffffffffffffffffffffffffff1602179055505050620001c8565b600080fd5b600073ffffffffffffffffffffffffffffffffffffffff82169050919050565b6000620000fa82620000cd565b9050919050565b60006200010e82620000ed565b9050919050565b620001208162000101565b81146200012c57600080fd5b50565b600081519050620001408162000115565b92915050565b6000819050919050565b6200015b8162000146565b81146200016757600080fd5b50565b6000815190506200017b8162000150565b92915050565b600080604083850312156200019b576200019a620000c8565b5b6000620001ab858286016200012f565b9250506020620001be858286016200016a565b9150509250929050565b61111f80620001d86000396000f3fe60806040526004361061007b5760003560e01c80636fb1eb0c1161004e5780636fb1eb0c1461013c578063bf5a4dd314610167578063d96a094a14610190578063f1b51b42146101ac5761007b565b806302afe557146100805780631de7463a146100ab57806350fd7367146100e85780636c762b9514610111575b600080fd5b34801561008c57600080fd5b506100956101e9565b6040516100a291906109ca565b60405180910390f35b3480156100b757600080fd5b506100d260048036038101906100cd9190610a20565b61020f565b6040516100df9190610a5c565b60405180910390f35b3480156100f457600080fd5b5061010f600480360381019061010a9190610a77565b61027f565b005b34801561011d57600080fd5b506101266104c5565b6040516101339190610ad8565b60405180910390f35b34801561014857600080fd5b506101516104eb565b60405161015e9190610a5c565b60405180910390f35b34801561017357600080fd5b5061018e60048036038101906101899190610a20565b6104f1565b005b6101aa60048036038101906101a59190610a20565b61058c565b005b3480156101b857600080fd5b506101d360048036038101906101ce9190610a20565b610933565b6040516101e09190610a5c565b60405180910390f35b600160009054906101000a900473ffffffffffffffffffffffffffffffffffffffff1681565b6000806000808481526020019081526020016000205411610265576040517f08c379a000000000000000000000000000000000000000000000000000000000815260040161025c90610b76565b60405180910390fd5b600080838152602001908152602001600020549050919050565b600254600160009054906101000a900473ffffffffffffffffffffffffffffffffffffffff1673ffffffffffffffffffffffffffffffffffffffff1663a819604c846040518263ffffffff1660e01b81526004016102dd9190610a5c565b602060405180830381865afa1580156102fa573d6000803e3d6000fd5b505050506040513d601f19601f8201168201806040525081019061031e9190610bab565b6103289190610c07565b8111610369576040517f08c379a000000000000000000000000000000000000000000000000000000000815260040161036090610cad565b60405180910390fd5b3073ffffffffffffffffffffffffffffffffffffffff16600160009054906101000a900473ffffffffffffffffffffffffffffffffffffffff1673ffffffffffffffffffffffffffffffffffffffff1663c41a360a846040518263ffffffff1660e01b81526004016103db9190610a5c565b602060405180830381865afa1580156103f8573d6000803e3d6000fd5b505050506040513d601f19601f8201168201806040525081019061041c9190610cf9565b73ffffffffffffffffffffffffffffffffffffffff1614610472576040517f08c379a000000000000000000000000000000000000000000000000000000000815260040161046990610d98565b60405180910390fd5b8060008084815260200190815260200160002081905550817f6bb983fbfda29ddb5b58d20572aa61f1b2c65c055c47d3c43181c994df692763826040516104b99190610a5c565b60405180910390a25050565b600360009054906101000a900473ffffffffffffffffffffffffffffffffffffffff1681565b60025481565b60008060008381526020019081526020016000205411610546576040517f08c379a000000000000000000000000000000000000000000000000000000000815260040161053d90610e2a565b60405180910390fd5b60008082815260200190815260200160002060009055807f11245d25ac5d3f76df2a7746b28c41aa96f03d7279501fddfffab2df204ad97b60405160405180910390a250565b6000806000838152602001908152602001600020549050600081116105e6576040517f08c379a00000000000000000000000000000000000000000000000000000000081526004016105dd90610ebc565b60405180910390fd5b803414610628576040517f08c379a000000000000000000000000000000000000000000000000000000000815260040161061f90610f28565b60405180910390fd5b6000600160009054906101000a900473ffffffffffffffffffffffffffffffffffffffff1673ffffffffffffffffffffffffffffffffffffffff16637bfd451c846040518263ffffffff1660e01b81526004016106859190610a5c565b602060405180830381865afa1580156106a2573d6000803e3d6000fd5b505050506040513d601f19601f820116820180604052508101906106c69190610cf9565b9050600073ffffffffffffffffffffffffffffffffffffffff168173ffffffffffffffffffffffffffffffffffffffff1603610737576040517f08c379a000000000000000000000000000000000000000000000000000000000815260040161072e90610f94565b60405180910390fd5b3373ffffffffffffffffffffffffffffffffffffffff168173ffffffffffffffffffffffffffffffffffffffff16036107a5576040517f08c379a000000000000000000000000000000000000000000000000000000000815260040161079c90611000565b60405180910390fd5b3073ffffffffffffffffffffffffffffffffffffffff168173ffffffffffffffffffffffffffffffffffffffff1603610813576040517f08c379a000000000000000000000000000000000000000000000000000000000815260040161080a9061106c565b60405180910390fd5b8073ffffffffffffffffffffffffffffffffffffffff166108fc6002548461083b919061108c565b9081150290604051600060405180830381858888f19350505050158015610866573d6000803e3d6000fd5b50600160009054906101000a900473ffffffffffffffffffffffffffffffffffffffff1673ffffffffffffffffffffffffffffffffffffffff1663b7760c8f84336040518363ffffffff1660e01b81526004016108c49291906110c0565b600060405180830381600087803b1580156108de57600080fd5b505af11580156108f2573d6000803e3d6000fd5b50505050827f28127dfcc1dd5686b866e4b54ff001bb576ff342082f01aa75b371a462b6760e836040516109269190610a5c565b60405180910390a2505050565b60006020528060005260406000206000915090505481565b600073ffffffffffffffffffffffffffffffffffffffff82169050919050565b6000819050919050565b600061099061098b6109868461094b565b61096b565b61094b565b9050919050565b60006109a282610975565b9050919050565b60006109b482610997565b9050919050565b6109c4816109a9565b82525050565b60006020820190506109df60008301846109bb565b92915050565b600080fd5b6000819050919050565b6109fd816109ea565b8114610a0857600080fd5b50565b600081359050610a1a816109f4565b92915050565b600060208284031215610a3657610a356109e5565b5b6000610a4484828501610a0b565b91505092915050565b610a56816109ea565b82525050565b6000602082019050610a716000830184610a4d565b92915050565b60008060408385031215610a8e57610a8d6109e5565b5b6000610a9c85828601610a0b565b9250506020610aad85828601610a0b565b9150509250929050565b6000610ac28261094b565b9050919050565b610ad281610ab7565b82525050565b6000602082019050610aed6000830184610ac9565b92915050565b600082825260208201905092915050565b7f44696365206d757374206265206c6973746564206f6e2064696365206d61726b60008201527f657420746f206265207072696365640000000000000000000000000000000000602082015250565b6000610b60602f83610af3565b9150610b6b82610b04565b604082019050919050565b60006020820190508181036000830152610b8f81610b53565b9050919050565b600081519050610ba5816109f4565b92915050565b600060208284031215610bc157610bc06109e5565b5b6000610bcf84828501610b96565b91505092915050565b7f4e487b7100000000000000000000000000000000000000000000000000000000600052601160045260246000fd5b6000610c12826109ea565b9150610c1d836109ea565b9250828201905080821115610c3557610c34610bd8565b5b92915050565b7f5072696365206d7573742062652067726561746572207468616e20646963652060008201527f76616c756520706c757320636f6d6d697373696f6e2066656500000000000000602082015250565b6000610c97603983610af3565b9150610ca282610c3b565b604082019050919050565b60006020820190508181036000830152610cc681610c8a565b9050919050565b610cd681610ab7565b8114610ce157600080fd5b50565b600081519050610cf381610ccd565b92915050565b600060208284031215610d0f57610d0e6109e5565b5b6000610d1d84828501610ce4565b91505092915050565b7f4f776e6572206f662064696365206d7573742062652064696365206d61726b6560008201527f7400000000000000000000000000000000000000000000000000000000000000602082015250565b6000610d82602183610af3565b9150610d8d82610d26565b604082019050919050565b60006020820190508181036000830152610db181610d75565b9050919050565b7f44696365206d757374206265206c6973746564206f6e2064696365206d61726b60008201527f657420746f20626520756e6c6973746564000000000000000000000000000000602082015250565b6000610e14603183610af3565b9150610e1f82610db8565b604082019050919050565b60006020820190508181036000830152610e4381610e07565b9050919050565b7f44696365206d757374206265206c6973746564206f6e2064696365206d61726b60008201527f657420746f20626520736f6c6400000000000000000000000000000000000000602082015250565b6000610ea6602d83610af3565b9150610eb182610e4a565b604082019050919050565b60006020820190508181036000830152610ed581610e99565b9050919050565b7f5072696365206e6f7420636f7272656374000000000000000000000000000000600082015250565b6000610f12601183610af3565b9150610f1d82610edc565b602082019050919050565b60006020820190508181036000830152610f4181610f05565b9050919050565b7f496e76616c6964206f776e657200000000000000000000000000000000000000600082015250565b6000610f7e600d83610af3565b9150610f8982610f48565b602082019050919050565b60006020820190508181036000830152610fad81610f71565b9050919050565b7f43616e6e6f742062757920796f7572206f776e20646963650000000000000000600082015250565b6000610fea601883610af3565b9150610ff582610fb4565b602082019050919050565b6000602082019050818103600083015261101981610fdd565b9050919050565b7f4d61726b65742063616e6e6f7420627579206469636500000000000000000000600082015250565b6000611056601683610af3565b915061106182611020565b602082019050919050565b6000602082019050818103600083015261108581611049565b9050919050565b6000611097826109ea565b91506110a2836109ea565b92508282039050818111156110ba576110b9610bd8565b5b92915050565b60006040820190506110d56000830185610a4d565b6110e26020830184610ac9565b939250505056fea2646970667358221220d6518ece640f84002a0029c6c76dcaaf497a67c11d12339dd5882d46f363dd0e64736f6c63430008130033",
  "immutableReferences": {},
  "source": "// SPDX-License-Identifier: UNLICENSED\r\npragma solidity ^0.8.0;\r\nimport \"./dice.sol\";\r\n\r\ncontract DiceMarket {\r\n    mapping(uint256 => uint256) public idtoprice;\r\n    \r\n    Dice public diceContract;\r\n    uint256 public commissionFee;\r\n    address public thisaddress;\r\n    \r\n    event DiceListed(uint256 indexed diceId, uint256 price);\r\n    event DiceUnlisted(uint256 indexed diceId);\r\n    event DiceSold(uint256 indexed diceId, uint256 price);\r\n\r\n    constructor(Dice _diceContract, uint256 _commissionFee) {\r\n        diceContract = _diceContract;\r\n        commissionFee = _commissionFee;\r\n        thisaddress = address(this);\r\n    }\r\n\r\n    function list(uint256 _diceId, uint256 _price) public {\r\n        // require price > dice_value + commission\r\n        require(_price > diceContract.getDiceValue(_diceId) + commissionFee, \"Price must be greater than dice value plus commission fee\");\r\n        // require owner of dice to be dice market\r\n        require(diceContract.getOwner(_diceId) == address(this), \"Owner of dice must be dice market\");\r\n\r\n        // Create a new market listing\r\n        idtoprice[_diceId] = _price;\r\n\r\n        emit DiceListed(_diceId, _price);\r\n    }\r\n\r\n    function unlist(uint256 _diceId) public {\r\n        // require dice to be listed on market\r\n        require(idtoprice[_diceId] > 0, \"Dice must be listed on dice market to be unlisted\");\r\n\r\n        // delete listing\r\n        delete idtoprice[_diceId];\r\n\r\n        emit DiceUnlisted(_diceId);\r\n    }\r\n\r\n    function checkPrice(uint256 _diceId) public view returns (uint256) {\r\n        // require dice to be listed on market\r\n        require(idtoprice[_diceId] > 0, \"Dice must be listed on dice market to be priced\");\r\n\r\n        return idtoprice[_diceId];\r\n    }\r\n\r\n    function buy(uint256 _diceId) public payable {\r\n        uint256 price = idtoprice[_diceId];\r\n        require(price > 0, \"Dice must be listed on dice market to be sold\");\r\n        require(msg.value == price, \"Price not correct\");\r\n\r\n        address seller = diceContract.getprevOwner(_diceId);\r\n        require(seller != address(0), \"Invalid owner\");\r\n        require(seller != msg.sender, \"Cannot buy your own dice\");\r\n        require(seller != address(this), \"Market cannot buy dice\");\r\n\r\n        payable(seller).transfer(price - commissionFee);\r\n        diceContract.transfer(_diceId, msg.sender);\r\n\r\n        emit DiceSold(_diceId, price);\r\n    }\r\n\r\n    \r\n}",
  "sourcePath": "C:\\Users\\alexr\\FT5004 Group Project\\contracts\\dicemarket.sol",
  "compiler": {
    "name": "solc",
    "version": "0.8.19+commit.7dd6d404.Emscripten.clang"
  },
  "schemaVersion": "3.4.13",
  "updatedAt": "2023-04-10T02:44:20.852Z",
  "networkType": "ethereum",
  "devdoc": {
    "kind": "dev",
    "methods": {},
    "version": 1
  },
  "userdoc": {
    "kind": "user",
    "methods": {},
    "version": 1
  }
}