{
  "contractName": "Stock",
  "abi": [
    {
      "inputs": [
        {
          "internalType": "address",
          "name": "stAddress",
          "type": "address"
        },
        {
          "internalType": "address[]",
          "name": "playerAddresses",
          "type": "address[]"
        }
      ],
      "stateMutability": "nonpayable",
      "type": "constructor"
    },
    {
      "inputs": [],
      "name": "SHARE_COUNT",
      "outputs": [
        {
          "internalType": "uint256",
          "name": "",
          "type": "uint256"
        }
      ],
      "stateMutability": "view",
      "type": "function"
    },
    {
      "inputs": [],
      "name": "STOCK_COUNT",
      "outputs": [
        {
          "internalType": "uint256",
          "name": "",
          "type": "uint256"
        }
      ],
      "stateMutability": "view",
      "type": "function"
    },
    {
      "inputs": [
        {
          "internalType": "uint256",
          "name": "stockId",
          "type": "uint256"
        },
        {
          "internalType": "uint256",
          "name": "shareId",
          "type": "uint256"
        },
        {
          "internalType": "uint256",
          "name": "newPrice",
          "type": "uint256"
        }
      ],
      "name": "changeAskPrice",
      "outputs": [],
      "stateMutability": "nonpayable",
      "type": "function"
    },
    {
      "inputs": [
        {
          "internalType": "uint256",
          "name": "stockId",
          "type": "uint256"
        },
        {
          "internalType": "uint256",
          "name": "shareId",
          "type": "uint256"
        },
        {
          "internalType": "address",
          "name": "recipient",
          "type": "address"
        }
      ],
      "name": "transferShare",
      "outputs": [],
      "stateMutability": "nonpayable",
      "type": "function"
    },
    {
      "inputs": [
        {
          "internalType": "uint256",
          "name": "stockId",
          "type": "uint256"
        }
      ],
      "name": "getStock",
      "outputs": [
        {
          "components": [
            {
              "internalType": "address",
              "name": "owner",
              "type": "address"
            },
            {
              "internalType": "uint256",
              "name": "askPrice",
              "type": "uint256"
            }
          ],
          "internalType": "struct Stock.Share[]",
          "name": "",
          "type": "tuple[]"
        }
      ],
      "stateMutability": "view",
      "type": "function"
    }
  ],
  "bytecode": "0x60806040523480156200001157600080fd5b5060405162001212380380620012128339818101604052810190620000379190620004dd565b60058151146200007e576040517f08c379a00000000000000000000000000000000000000000000000000000000081526004016200007590620005a4565b60405180910390fd5b81600160006101000a81548173ffffffffffffffffffffffffffffffffffffffff021916908373ffffffffffffffffffffffffffffffffffffffff16021790555060005b6005811015620002e65760005b6002600a620000df91906200062e565b811015620002cf576000600282620000f8919062000666565b905060008084815260200190815260200160002060405180604001604052808684815181106200012d576200012c620006b1565b5b602002602001015173ffffffffffffffffffffffffffffffffffffffff168152602001611770815250908060018154018082558091505060019003906000526020600020906002020160009091909190915060008201518160000160006101000a81548173ffffffffffffffffffffffffffffffffffffffff021916908373ffffffffffffffffffffffffffffffffffffffff160217905550602082015181600101555050600080848152602001908152602001600020604051806040016040528086600185620001ff9190620006e0565b81518110620002135762000212620006b1565b5b602002602001015173ffffffffffffffffffffffffffffffffffffffff168152602001611770815250908060018154018082558091505060019003906000526020600020906002020160009091909190915060008201518160000160006101000a81548173ffffffffffffffffffffffffffffffffffffffff021916908373ffffffffffffffffffffffffffffffffffffffff160217905550602082015181600101555050508080620002c6906200071b565b915050620000cf565b508080620002dd906200071b565b915050620000c2565b50505062000768565b6000604051905090565b600080fd5b600080fd5b600073ffffffffffffffffffffffffffffffffffffffff82169050919050565b6000620003308262000303565b9050919050565b620003428162000323565b81146200034e57600080fd5b50565b600081519050620003628162000337565b92915050565b600080fd5b6000601f19601f8301169050919050565b7f4e487b7100000000000000000000000000000000000000000000000000000000600052604160045260246000fd5b620003b8826200036d565b810181811067ffffffffffffffff82111715620003da57620003d96200037e565b5b80604052505050565b6000620003ef620002ef565b9050620003fd8282620003ad565b919050565b600067ffffffffffffffff82111562000420576200041f6200037e565b5b602082029050602081019050919050565b600080fd5b60006200044d620004478462000402565b620003e3565b9050808382526020820190506020840283018581111562000473576200047262000431565b5b835b81811015620004a057806200048b888262000351565b84526020840193505060208101905062000475565b5050509392505050565b600082601f830112620004c257620004c162000368565b5b8151620004d484826020860162000436565b91505092915050565b60008060408385031215620004f757620004f6620002f9565b5b6000620005078582860162000351565b925050602083015167ffffffffffffffff8111156200052b576200052a620002fe565b5b6200053985828601620004aa565b9150509250929050565b600082825260208201905092915050565b7f4d7573742070726f76696465203520706c617965722061646472657373657300600082015250565b60006200058c601f8362000543565b9150620005998262000554565b602082019050919050565b60006020820190508181036000830152620005bf816200057d565b9050919050565b6000819050919050565b7f4e487b7100000000000000000000000000000000000000000000000000000000600052601260045260246000fd5b7f4e487b7100000000000000000000000000000000000000000000000000000000600052601160045260246000fd5b60006200063b82620005c6565b91506200064883620005c6565b9250826200065b576200065a620005d0565b5b828204905092915050565b60006200067382620005c6565b91506200068083620005c6565b92508282026200069081620005c6565b91508282048414831517620006aa57620006a9620005ff565b5b5092915050565b7f4e487b7100000000000000000000000000000000000000000000000000000000600052603260045260246000fd5b6000620006ed82620005c6565b9150620006fa83620005c6565b9250828201905080821115620007155762000714620005ff565b5b92915050565b60006200072882620005c6565b91507fffffffffffffffffffffffffffffffffffffffffffffffffffffffffffffffff82036200075d576200075c620005ff565b5b600182019050919050565b610a9a80620007786000396000f3fe608060405234801561001057600080fd5b50600436106100575760003560e01c806317bd8fb31461005c5780633ab7d09a14610078578063a1d9ecd5146100a8578063b11a0151146100c6578063f861a73d146100e4575b600080fd5b61007660048036038101906100719190610570565b610100565b005b610092600480360381019061008d91906105c3565b610202565b60405161009f919061071e565b60405180910390f35b6100b06102d3565b6040516100bd919061074f565b60405180910390f35b6100ce6102d8565b6040516100db919061074f565b60405180910390f35b6100fe60048036038101906100f99190610796565b6102dd565b005b3373ffffffffffffffffffffffffffffffffffffffff16600080858152602001908152602001600020838154811061013b5761013a6107e9565b5b906000526020600020906002020160000160009054906101000a900473ffffffffffffffffffffffffffffffffffffffff1673ffffffffffffffffffffffffffffffffffffffff16146101c3576040517f08c379a00000000000000000000000000000000000000000000000000000000081526004016101ba9061089b565b60405180910390fd5b8060008085815260200190815260200160002083815481106101e8576101e76107e9565b5b906000526020600020906002020160010181905550505050565b6060600080838152602001908152602001600020805480602002602001604051908101604052809291908181526020016000905b828210156102c857838290600052602060002090600202016040518060400160405290816000820160009054906101000a900473ffffffffffffffffffffffffffffffffffffffff1673ffffffffffffffffffffffffffffffffffffffff1673ffffffffffffffffffffffffffffffffffffffff16815260200160018201548152505081526020019060010190610236565b505050509050919050565b600a81565b600581565b3373ffffffffffffffffffffffffffffffffffffffff166000808581526020019081526020016000208381548110610318576103176107e9565b5b906000526020600020906002020160000160009054906101000a900473ffffffffffffffffffffffffffffffffffffffff1673ffffffffffffffffffffffffffffffffffffffff16146103a0576040517f08c379a00000000000000000000000000000000000000000000000000000000081526004016103979061092d565b60405180910390fd5b600080600085815260200190815260200160002083815481106103c6576103c56107e9565b5b9060005260206000209060020201600101549050600160009054906101000a900473ffffffffffffffffffffffffffffffffffffffff1673ffffffffffffffffffffffffffffffffffffffff166323b872dd8330846040518463ffffffff1660e01b81526004016104399392919061095c565b6020604051808303816000875af1158015610458573d6000803e3d6000fd5b505050506040513d601f19601f8201168201806040525081019061047c91906109cb565b6104bb576040517f08c379a00000000000000000000000000000000000000000000000000000000081526004016104b290610a44565b60405180910390fd5b8160008086815260200190815260200160002084815481106104e0576104df6107e9565b5b906000526020600020906002020160000160006101000a81548173ffffffffffffffffffffffffffffffffffffffff021916908373ffffffffffffffffffffffffffffffffffffffff16021790555050505050565b600080fd5b6000819050919050565b61054d8161053a565b811461055857600080fd5b50565b60008135905061056a81610544565b92915050565b60008060006060848603121561058957610588610535565b5b60006105978682870161055b565b93505060206105a88682870161055b565b92505060406105b98682870161055b565b9150509250925092565b6000602082840312156105d9576105d8610535565b5b60006105e78482850161055b565b91505092915050565b600081519050919050565b600082825260208201905092915050565b6000819050602082019050919050565b600073ffffffffffffffffffffffffffffffffffffffff82169050919050565b60006106478261061c565b9050919050565b6106578161063c565b82525050565b6106668161053a565b82525050565b604082016000820151610682600085018261064e565b506020820151610695602085018261065d565b50505050565b60006106a7838361066c565b60408301905092915050565b6000602082019050919050565b60006106cb826105f0565b6106d581856105fb565b93506106e08361060c565b8060005b838110156107115781516106f8888261069b565b9750610703836106b3565b9250506001810190506106e4565b5085935050505092915050565b6000602082019050818103600083015261073881846106c0565b905092915050565b6107498161053a565b82525050565b60006020820190506107646000830184610740565b92915050565b6107738161063c565b811461077e57600080fd5b50565b6000813590506107908161076a565b92915050565b6000806000606084860312156107af576107ae610535565b5b60006107bd8682870161055b565b93505060206107ce8682870161055b565b92505060406107df86828701610781565b9150509250925092565b7f4e487b7100000000000000000000000000000000000000000000000000000000600052603260045260246000fd5b600082825260208201905092915050565b7f4f6e6c7920746865207368617265206f776e65722063616e206368616e67652060008201527f7468652061736b20707269636500000000000000000000000000000000000000602082015250565b6000610885602d83610818565b915061089082610829565b604082019050919050565b600060208201905081810360008301526108b481610878565b9050919050565b7f4f6e6c7920746865207368617265206f776e65722063616e207472616e73666560008201527f7220746865207368617265000000000000000000000000000000000000000000602082015250565b6000610917602b83610818565b9150610922826108bb565b604082019050919050565b600060208201905081810360008301526109468161090a565b9050919050565b6109568161063c565b82525050565b6000606082019050610971600083018661094d565b61097e602083018561094d565b61098b6040830184610740565b949350505050565b60008115159050919050565b6109a881610993565b81146109b357600080fd5b50565b6000815190506109c58161099f565b92915050565b6000602082840312156109e1576109e0610535565b5b60006109ef848285016109b6565b91505092915050565b7f5472616e7366657272696e67205354206661696c656400000000000000000000600082015250565b6000610a2e601683610818565b9150610a39826109f8565b602082019050919050565b60006020820190508181036000830152610a5d81610a21565b905091905056fea2646970667358221220309f4aeeb23e3e9a10681498007687b305ce98a2dc354b4d3c74921d8318112964736f6c63430008130033",
  "immutableReferences": {},
  "source": "// SPDX-License-Identifier: UNLICENSED\r\npragma solidity ^0.8.0;\r\n\r\nimport \"./StockToken.sol\";\r\n\r\ncontract Stock {\r\n    struct Share {\r\n        address owner;\r\n        uint256 askPrice;\r\n    }\r\n    \r\n    mapping(uint256 => Share[]) private stocks;\r\n    uint256 public constant STOCK_COUNT = 5;\r\n    uint256 public constant SHARE_COUNT = 10;\r\n    StockToken private st;\r\n    \r\n    constructor(address stAddress, address[] memory playerAddresses) {\r\n        require(playerAddresses.length == STOCK_COUNT, \"Must provide 5 player addresses\");\r\n        st = StockToken(stAddress);\r\n        for (uint256 i = 0; i < STOCK_COUNT; i++) {\r\n            for (uint256 j = 0; j < SHARE_COUNT / 2; j++) {\r\n                uint256 shareIndex = j * 2;\r\n                stocks[i].push(Share(playerAddresses[shareIndex], 6000));\r\n                stocks[i].push(Share(playerAddresses[shareIndex + 1], 6000));\r\n            }\r\n        }\r\n    }\r\n    \r\n    function changeAskPrice(uint256 stockId, uint256 shareId, uint256 newPrice) public {\r\n        require(stocks[stockId][shareId].owner == msg.sender, \"Only the share owner can change the ask price\");\r\n        stocks[stockId][shareId].askPrice = newPrice;\r\n    }\r\n    \r\n    function transferShare(uint256 stockId, uint256 shareId, address recipient) public {\r\n        require(stocks[stockId][shareId].owner == msg.sender, \"Only the share owner can transfer the share\");\r\n        uint256 price = stocks[stockId][shareId].askPrice;\r\n        require(st.transferFrom(recipient, address(this), price), \"Transferring ST failed\");\r\n        stocks[stockId][shareId].owner = recipient;\r\n    }\r\n    \r\n    function getStock(uint256 stockId) public view returns (Share[] memory) {\r\n        return stocks[stockId];\r\n    }\r\n}",
  "sourcePath": "C:\\Users\\alexr\\FT5004 Group Project\\contracts\\Stock.sol",
  "compiler": {
    "name": "solc",
    "version": "0.8.19+commit.7dd6d404.Emscripten.clang"
  },
  "schemaVersion": "3.4.13",
  "updatedAt": "2023-04-10T04:12:01.373Z",
  "devdoc": {
    "kind": "dev",
    "methods": {},
    "version": 1
  },
  "userdoc": {
    "kind": "user",
    "methods": {},
    "version": 1
  }
}