{
  "contractName": "StockToken",
  "abi": [
    {
      "inputs": [
        {
          "internalType": "uint256",
          "name": "_commissionFee",
          "type": "uint256"
        }
      ],
      "stateMutability": "nonpayable",
      "type": "constructor"
    },
    {
      "anonymous": false,
      "inputs": [
        {
          "indexed": true,
          "internalType": "address",
          "name": "owner",
          "type": "address"
        },
        {
          "indexed": true,
          "internalType": "address",
          "name": "spender",
          "type": "address"
        },
        {
          "indexed": false,
          "internalType": "uint256",
          "name": "value",
          "type": "uint256"
        }
      ],
      "name": "Approval",
      "type": "event"
    },
    {
      "anonymous": false,
      "inputs": [
        {
          "indexed": true,
          "internalType": "address",
          "name": "from",
          "type": "address"
        },
        {
          "indexed": true,
          "internalType": "address",
          "name": "to",
          "type": "address"
        },
        {
          "indexed": false,
          "internalType": "uint256",
          "name": "value",
          "type": "uint256"
        }
      ],
      "name": "Transfer",
      "type": "event"
    },
    {
      "anonymous": false,
      "inputs": [
        {
          "indexed": false,
          "internalType": "uint256",
          "name": "value",
          "type": "uint256"
        }
      ],
      "name": "end_game",
      "type": "event"
    },
    {
      "inputs": [],
      "name": "decimals",
      "outputs": [
        {
          "internalType": "uint8",
          "name": "",
          "type": "uint8"
        }
      ],
      "stateMutability": "view",
      "type": "function"
    },
    {
      "inputs": [],
      "name": "name",
      "outputs": [
        {
          "internalType": "string",
          "name": "",
          "type": "string"
        }
      ],
      "stateMutability": "view",
      "type": "function"
    },
    {
      "inputs": [],
      "name": "player_count",
      "outputs": [
        {
          "internalType": "uint256",
          "name": "",
          "type": "uint256"
        }
      ],
      "stateMutability": "view",
      "type": "function"
    },
    {
      "inputs": [],
      "name": "symbol",
      "outputs": [
        {
          "internalType": "string",
          "name": "",
          "type": "string"
        }
      ],
      "stateMutability": "view",
      "type": "function"
    },
    {
      "inputs": [],
      "name": "total_supply",
      "outputs": [
        {
          "internalType": "uint256",
          "name": "",
          "type": "uint256"
        }
      ],
      "stateMutability": "view",
      "type": "function"
    },
    {
      "inputs": [],
      "name": "totalSupply",
      "outputs": [
        {
          "internalType": "uint256",
          "name": "",
          "type": "uint256"
        }
      ],
      "stateMutability": "view",
      "type": "function"
    },
    {
      "inputs": [
        {
          "internalType": "address",
          "name": "account",
          "type": "address"
        }
      ],
      "name": "balanceOf",
      "outputs": [
        {
          "internalType": "uint256",
          "name": "",
          "type": "uint256"
        }
      ],
      "stateMutability": "view",
      "type": "function"
    },
    {
      "inputs": [
        {
          "internalType": "address",
          "name": "recipient",
          "type": "address"
        },
        {
          "internalType": "uint256",
          "name": "amount",
          "type": "uint256"
        }
      ],
      "name": "transfer",
      "outputs": [
        {
          "internalType": "bool",
          "name": "",
          "type": "bool"
        }
      ],
      "stateMutability": "nonpayable",
      "type": "function"
    },
    {
      "inputs": [
        {
          "internalType": "address",
          "name": "owner",
          "type": "address"
        },
        {
          "internalType": "address",
          "name": "spender",
          "type": "address"
        }
      ],
      "name": "allowance",
      "outputs": [
        {
          "internalType": "uint256",
          "name": "",
          "type": "uint256"
        }
      ],
      "stateMutability": "view",
      "type": "function"
    },
    {
      "inputs": [
        {
          "internalType": "address",
          "name": "spender",
          "type": "address"
        },
        {
          "internalType": "uint256",
          "name": "amount",
          "type": "uint256"
        }
      ],
      "name": "approve",
      "outputs": [
        {
          "internalType": "bool",
          "name": "",
          "type": "bool"
        }
      ],
      "stateMutability": "nonpayable",
      "type": "function"
    },
    {
      "inputs": [
        {
          "internalType": "address",
          "name": "sender",
          "type": "address"
        },
        {
          "internalType": "address",
          "name": "recipient",
          "type": "address"
        },
        {
          "internalType": "uint256",
          "name": "amount",
          "type": "uint256"
        }
      ],
      "name": "transferFrom",
      "outputs": [
        {
          "internalType": "bool",
          "name": "",
          "type": "bool"
        }
      ],
      "stateMutability": "nonpayable",
      "type": "function"
    },
    {
      "inputs": [],
      "name": "topUpST",
      "outputs": [],
      "stateMutability": "payable",
      "type": "function"
    },
    {
      "inputs": [],
      "name": "distributeEther",
      "outputs": [],
      "stateMutability": "payable",
      "type": "function"
    }
  ],
  "bytecode": "0x608060405261177060025560006003553480156200001c57600080fd5b506040516200182e3803806200182e833981810160405281019062000042919062000090565b8060048190555050620000c2565b600080fd5b6000819050919050565b6200006a8162000055565b81146200007657600080fd5b50565b6000815190506200008a816200005f565b92915050565b600060208284031215620000a957620000a862000050565b5b6000620000b98482850162000079565b91505092915050565b61175c80620000d26000396000f3fe6080604052600436106100c25760003560e01c8063494bf6081161007f578063a14d2b3311610059578063a14d2b331461025f578063a9059cbb14610269578063cf7b8c5f146102a6578063dd62ed3e146102d1576100c2565b8063494bf608146101ed57806370a08231146101f757806395d89b4114610234576100c2565b806306fdde03146100c7578063095ea7b3146100f257806318160ddd1461012f57806323b872dd1461015a578063313ce567146101975780633940e9ee146101c2575b600080fd5b3480156100d357600080fd5b506100dc61030e565b6040516100e99190610f61565b60405180910390f35b3480156100fe57600080fd5b506101196004803603810190610114919061101c565b610347565b6040516101269190611077565b60405180910390f35b34801561013b57600080fd5b50610144610439565b60405161015191906110a1565b60405180910390f35b34801561016657600080fd5b50610181600480360381019061017c91906110bc565b610443565b60405161018e9190611077565b60405180910390f35b3480156101a357600080fd5b506101ac610732565b6040516101b9919061112b565b60405180910390f35b3480156101ce57600080fd5b506101d7610737565b6040516101e491906110a1565b60405180910390f35b6101f561073d565b005b34801561020357600080fd5b5061021e60048036038101906102199190611146565b610971565b60405161022b91906110a1565b60405180910390f35b34801561024057600080fd5b506102496109b9565b6040516102569190610f61565b60405180910390f35b6102676109f2565b005b34801561027557600080fd5b50610290600480360381019061028b919061101c565b610ca8565b60405161029d9190611077565b60405180910390f35b3480156102b257600080fd5b506102bb610e44565b6040516102c891906110a1565b60405180910390f35b3480156102dd57600080fd5b506102f860048036038101906102f39190611173565b610e4a565b60405161030591906110a1565b60405180910390f35b6040518060400160405280600a81526020017f53746f636b546f6b656e0000000000000000000000000000000000000000000081525081565b600081600160003373ffffffffffffffffffffffffffffffffffffffff1673ffffffffffffffffffffffffffffffffffffffff16815260200190815260200160002060008573ffffffffffffffffffffffffffffffffffffffff1673ffffffffffffffffffffffffffffffffffffffff168152602001908152602001600020819055508273ffffffffffffffffffffffffffffffffffffffff163373ffffffffffffffffffffffffffffffffffffffff167f8c5be1e5ebec7d5bd14f71427d1e84f3dd0314c0f7b2291e5b200ac8c7c3b9258460405161042791906110a1565b60405180910390a36001905092915050565b6000600254905090565b60008060008573ffffffffffffffffffffffffffffffffffffffff1673ffffffffffffffffffffffffffffffffffffffff168152602001908152602001600020548211156104c6576040517f08c379a00000000000000000000000000000000000000000000000000000000081526004016104bd906111ff565b60405180910390fd5b600160008573ffffffffffffffffffffffffffffffffffffffff1673ffffffffffffffffffffffffffffffffffffffff16815260200190815260200160002060003373ffffffffffffffffffffffffffffffffffffffff1673ffffffffffffffffffffffffffffffffffffffff16815260200190815260200160002054821115610585576040517f08c379a000000000000000000000000000000000000000000000000000000000815260040161057c9061126b565b60405180910390fd5b816000808673ffffffffffffffffffffffffffffffffffffffff1673ffffffffffffffffffffffffffffffffffffffff16815260200190815260200160002060008282546105d391906112ba565b92505081905550816000808573ffffffffffffffffffffffffffffffffffffffff1673ffffffffffffffffffffffffffffffffffffffff168152602001908152602001600020600082825461062891906112ee565b9250508190555081600160008673ffffffffffffffffffffffffffffffffffffffff1673ffffffffffffffffffffffffffffffffffffffff16815260200190815260200160002060003373ffffffffffffffffffffffffffffffffffffffff1673ffffffffffffffffffffffffffffffffffffffff16815260200190815260200160002060008282546106bb91906112ba565b925050819055508273ffffffffffffffffffffffffffffffffffffffff168473ffffffffffffffffffffffffffffffffffffffff167fddf252ad1be2c89b69c2b068fc378daa952ba7f163c4a11628f55a4df523b3ef8460405161071f91906110a1565b60405180910390a3600190509392505050565b601281565b60025481565b674563918244f400003414610787576040517f08c379a000000000000000000000000000000000000000000000000000000000815260040161077e9061136e565b60405180910390fd5b6000600254146107cc576040517f08c379a00000000000000000000000000000000000000000000000000000000081526004016107c3906113da565b60405180910390fd5b600061177090506000806000600190505b6005811161096b57600073ffffffffffffffffffffffffffffffffffffffff166005600083815260200190815260200160002060009054906101000a900473ffffffffffffffffffffffffffffffffffffffff1673ffffffffffffffffffffffffffffffffffffffff1603610887576040517f08c379a000000000000000000000000000000000000000000000000000000000815260040161087e90611446565b60405180910390fd5b6108c36005600083815260200190815260200160002060009054906101000a900473ffffffffffffffffffffffffffffffffffffffff16610971565b92508383346108d29190611466565b6108dc91906114d7565b91506005600082815260200190815260200160002060009054906101000a900473ffffffffffffffffffffffffffffffffffffffff1673ffffffffffffffffffffffffffffffffffffffff166108fc839081150290604051600060405180830381858888f19350505050158015610957573d6000803e3d6000fd5b50808061096390611508565b9150506107dd565b50505050565b60008060008373ffffffffffffffffffffffffffffffffffffffff1673ffffffffffffffffffffffffffffffffffffffff168152602001908152602001600020549050919050565b6040518060400160405280600281526020017f535400000000000000000000000000000000000000000000000000000000000081525081565b600454670de0b6b3a7640000610a0891906112ee565b3414610a49576040517f08c379a0000000000000000000000000000000000000000000000000000000008152600401610a40906115c2565b60405180910390fd5b6000610a5433610971565b14610a94576040517f08c379a0000000000000000000000000000000000000000000000000000000008152600401610a8b9061162e565b60405180910390fd5b600060025411610ad9576040517f08c379a0000000000000000000000000000000000000000000000000000000008152600401610ad09061169a565b60405180910390fd5b6103e860026000828254610aed91906112ba565b925050819055506103e86000803373ffffffffffffffffffffffffffffffffffffffff1673ffffffffffffffffffffffffffffffffffffffff168152602001908152602001600020819055503360056000600354815260200190815260200160002060006101000a81548173ffffffffffffffffffffffffffffffffffffffff021916908373ffffffffffffffffffffffffffffffffffffffff160217905550600060056000600354815260200190815260200160002060009054906101000a900473ffffffffffffffffffffffffffffffffffffffff1690506103e8610bd382610971565b14610c13576040517f08c379a0000000000000000000000000000000000000000000000000000000008152600401610c0a90611706565b60405180910390fd5b60036000815480929190610c2690611508565b91905055506005600080815260200190815260200160002060009054906101000a900473ffffffffffffffffffffffffffffffffffffffff1673ffffffffffffffffffffffffffffffffffffffff166108fc349081150290604051600060405180830381858888f19350505050158015610ca4573d6000803e3d6000fd5b5050565b60008060003373ffffffffffffffffffffffffffffffffffffffff1673ffffffffffffffffffffffffffffffffffffffff16815260200190815260200160002054821115610d2b576040517f08c379a0000000000000000000000000000000000000000000000000000000008152600401610d22906111ff565b60405180910390fd5b816000803373ffffffffffffffffffffffffffffffffffffffff1673ffffffffffffffffffffffffffffffffffffffff1681526020019081526020016000206000828254610d7991906112ba565b92505081905550816000808573ffffffffffffffffffffffffffffffffffffffff1673ffffffffffffffffffffffffffffffffffffffff1681526020019081526020016000206000828254610dce91906112ee565b925050819055508273ffffffffffffffffffffffffffffffffffffffff163373ffffffffffffffffffffffffffffffffffffffff167fddf252ad1be2c89b69c2b068fc378daa952ba7f163c4a11628f55a4df523b3ef84604051610e3291906110a1565b60405180910390a36001905092915050565b60035481565b6000600160008473ffffffffffffffffffffffffffffffffffffffff1673ffffffffffffffffffffffffffffffffffffffff16815260200190815260200160002060008373ffffffffffffffffffffffffffffffffffffffff1673ffffffffffffffffffffffffffffffffffffffff16815260200190815260200160002054905092915050565b600081519050919050565b600082825260208201905092915050565b60005b83811015610f0b578082015181840152602081019050610ef0565b60008484015250505050565b6000601f19601f8301169050919050565b6000610f3382610ed1565b610f3d8185610edc565b9350610f4d818560208601610eed565b610f5681610f17565b840191505092915050565b60006020820190508181036000830152610f7b8184610f28565b905092915050565b600080fd5b600073ffffffffffffffffffffffffffffffffffffffff82169050919050565b6000610fb382610f88565b9050919050565b610fc381610fa8565b8114610fce57600080fd5b50565b600081359050610fe081610fba565b92915050565b6000819050919050565b610ff981610fe6565b811461100457600080fd5b50565b60008135905061101681610ff0565b92915050565b6000806040838503121561103357611032610f83565b5b600061104185828601610fd1565b925050602061105285828601611007565b9150509250929050565b60008115159050919050565b6110718161105c565b82525050565b600060208201905061108c6000830184611068565b92915050565b61109b81610fe6565b82525050565b60006020820190506110b66000830184611092565b92915050565b6000806000606084860312156110d5576110d4610f83565b5b60006110e386828701610fd1565b93505060206110f486828701610fd1565b925050604061110586828701611007565b9150509250925092565b600060ff82169050919050565b6111258161110f565b82525050565b6000602082019050611140600083018461111c565b92915050565b60006020828403121561115c5761115b610f83565b5b600061116a84828501610fd1565b91505092915050565b6000806040838503121561118a57611189610f83565b5b600061119885828601610fd1565b92505060206111a985828601610fd1565b9150509250929050565b7f496e73756666696369656e742062616c616e6365000000000000000000000000600082015250565b60006111e9601483610edc565b91506111f4826111b3565b602082019050919050565b60006020820190508181036000830152611218816111dc565b9050919050565b7f496e73756666696369656e7420616c6c6f77616e636500000000000000000000600082015250565b6000611255601683610edc565b91506112608261121f565b602082019050919050565b6000602082019050818103600083015261128481611248565b9050919050565b7f4e487b7100000000000000000000000000000000000000000000000000000000600052601160045260246000fd5b60006112c582610fe6565b91506112d083610fe6565b92508282039050818111156112e8576112e761128b565b5b92915050565b60006112f982610fe6565b915061130483610fe6565b925082820190508082111561131c5761131b61128b565b5b92915050565b7f506179203520657468657220746f20736574746c65207468652067616d650000600082015250565b6000611358601e83610edc565b915061136382611322565b602082019050919050565b600060208201905081810360008301526113878161134b565b9050919050565b7f5468657265206d75737420626520612067616d65206f6e676f696e6700000000600082015250565b60006113c4601c83610edc565b91506113cf8261138e565b602082019050919050565b600060208201905081810360008301526113f3816113b7565b9050919050565b7f76616c6964206164647265737300000000000000000000000000000000000000600082015250565b6000611430600d83610edc565b915061143b826113fa565b602082019050919050565b6000602082019050818103600083015261145f81611423565b9050919050565b600061147182610fe6565b915061147c83610fe6565b925082820261148a81610fe6565b915082820484148315176114a1576114a061128b565b5b5092915050565b7f4e487b7100000000000000000000000000000000000000000000000000000000600052601260045260246000fd5b60006114e282610fe6565b91506114ed83610fe6565b9250826114fd576114fc6114a8565b5b828204905092915050565b600061151382610fe6565b91507fffffffffffffffffffffffffffffffffffffffffffffffffffffffffffffffff82036115455761154461128b565b5b600182019050919050565b7f506c65617365207061792031206574686572202b20636f6d6d697373696f6e2060008201527f6665650000000000000000000000000000000000000000000000000000000000602082015250565b60006115ac602383610edc565b91506115b782611550565b604082019050919050565b600060208201905081810360008301526115db8161159f565b9050919050565b7f53656e64657220616c7265616479206f776e7320535400000000000000000000600082015250565b6000611618601683610edc565b9150611623826115e2565b602082019050919050565b600060208201905081810360008301526116478161160b565b9050919050565b7f546f6f206d616e7920706c617965727300000000000000000000000000000000600082015250565b6000611684601083610edc565b915061168f8261164e565b602082019050919050565b600060208201905081810360008301526116b381611677565b9050919050565b7f6163636f756e742062616c616e63650000000000000000000000000000000000600082015250565b60006116f0600f83610edc565b91506116fb826116ba565b602082019050919050565b6000602082019050818103600083015261171f816116e3565b905091905056fea264697066735822122095cca9f28638c0f312acd911de3c2512c5a59e0ee46a7dae1079108719e6c4db64736f6c63430008130033",
  "immutableReferences": {},
  "source": "// SPDX-License-Identifier: UNLICENSED\r\npragma solidity ^0.8.0;\r\n\r\ninterface IERC20 {\r\n\r\n    event Transfer(address indexed from, address indexed to, uint256 value);\r\n    event Approval(address indexed owner, address indexed spender, uint256 value);\r\n    event end_game(uint256 value);\r\n\r\n    function totalSupply() external view returns (uint256);\r\n    function balanceOf(address account) external view returns (uint256);\r\n    function allowance(address owner, address spender) external view returns (uint256);\r\n    function transfer(address recipient, uint256 amount) external returns (bool);\r\n    function approve(address spender, uint amount) external returns (bool);\r\n    function transferFrom(address sender, address recipient, uint256 amount) external returns (bool);\r\n\r\n}\r\n\r\ncontract StockToken is IERC20 {\r\n    string public constant name = \"StockToken\";\r\n    string public constant symbol = \"ST\";\r\n    uint8 public constant decimals = 18;\r\n    mapping (address => uint256) private accounts;\r\n    mapping (address => mapping (address => uint256)) private _allowances;\r\n    uint256 public total_supply = 6000;\r\n    uint public player_count = 0;\r\n    uint256 commission_fee;\r\n\r\n    mapping (uint => address) private id_to_address;\r\n\r\n    \r\n\r\n    constructor(uint256 _commissionFee) {\r\n        commission_fee = _commissionFee;\r\n    }\r\n\r\n    function totalSupply() public view override returns (uint256) {\r\n        return total_supply;\r\n    }\r\n\r\n    function balanceOf(address account) public view override returns (uint256) {\r\n        return accounts[account];\r\n    }\r\n\r\n    function transfer(address recipient, uint256 amount) public override returns (bool) {\r\n        require(amount <= accounts[msg.sender], \"Insufficient balance\");\r\n        accounts[msg.sender] -= amount;\r\n        accounts[recipient] += amount;\r\n        emit Transfer(msg.sender, recipient, amount);\r\n        return true;\r\n    }\r\n\r\n    function allowance(address owner, address spender) public view override returns (uint256) {\r\n        return _allowances[owner][spender];\r\n    }\r\n\r\n    function approve(address spender, uint256 amount) public override returns (bool) {\r\n        _allowances[msg.sender][spender] = amount;\r\n        emit Approval(msg.sender, spender, amount);\r\n        return true;\r\n    }\r\n\r\n    function transferFrom(address sender, address recipient, uint256 amount) public override returns (bool) {\r\n        require(amount <= accounts[sender], \"Insufficient balance\");\r\n        require(amount <= _allowances[sender][msg.sender], \"Insufficient allowance\");\r\n        accounts[sender] -= amount;\r\n        accounts[recipient] += amount;\r\n        _allowances[sender][msg.sender] -= amount;\r\n        emit Transfer(sender, recipient, amount);\r\n        return true;\r\n    }\r\n\r\n    function topUpST() public payable {\r\n        require(msg.value == 1 ether + commission_fee, \"Please pay 1 ether + commission fee\");\r\n        require(balanceOf(msg.sender) == 0, \"Sender already owns ST\");\r\n        require(total_supply > 0, \"Too many players\");\r\n\r\n        total_supply -= 1000;\r\n        accounts[msg.sender] = 1000;\r\n        \r\n        id_to_address[player_count] = msg.sender;\r\n\r\n        address addr = id_to_address[player_count];\r\n\r\n        require(balanceOf(addr) == 1000, 'account balance');\r\n\r\n        player_count++;\r\n\r\n        // id = 0 is the game master\r\n        payable(id_to_address[0]).transfer(msg.value);\r\n    }\r\n\r\n    function distributeEther() public payable{\r\n        // called by game master\r\n        require(msg.value == 5 ether, \"Pay 5 ether to settle the game\");\r\n        require(total_supply == 0, \"There must be a game ongoing\");\r\n\r\n        uint256 totalST = 6000;\r\n        uint256 stBalance;\r\n        uint256 amountToSend;\r\n\r\n        for (uint256 i = 1; i <= 5; i ++) {\r\n            require(id_to_address[i] != address(0), 'valid address');\r\n            stBalance = balanceOf(id_to_address[i]);\r\n\r\n            amountToSend = msg.value * stBalance / totalST ;\r\n\r\n            payable(id_to_address[i]).transfer(amountToSend);\r\n        }\r\n    }\r\n}",
  "sourcePath": "C:\\Users\\alexr\\FT5004 Group Project\\contracts\\StockToken.sol",
  "compiler": {
    "name": "solc",
    "version": "0.8.19+commit.7dd6d404.Emscripten.clang"
  },
  "schemaVersion": "3.4.13",
  "updatedAt": "2023-04-10T04:12:01.383Z",
  "devdoc": {
    "kind": "dev",
    "methods": {},
    "version": 1
  },
  "userdoc": {
    "kind": "user",
    "methods": {},
    "version": 1
  }
}